{
  "contractName": "Diginotice",
  "abi": [
    {
      "inputs": [],
      "stateMutability": "nonpayable",
      "type": "constructor"
    },
    {
      "anonymous": false,
      "inputs": [
        {
          "indexed": false,
          "internalType": "uint256",
          "name": "id",
          "type": "uint256"
        },
        {
          "indexed": false,
          "internalType": "string",
          "name": "message",
          "type": "string"
        },
        {
          "indexed": false,
          "internalType": "string",
          "name": "teacher",
          "type": "string"
        },
        {
          "indexed": false,
          "internalType": "string",
          "name": "year",
          "type": "string"
        },
        {
          "indexed": false,
          "internalType": "address",
          "name": "author",
          "type": "address"
        },
        {
          "indexed": false,
          "internalType": "string",
          "name": "image",
          "type": "string"
        }
      ],
      "name": "PostCreated",
      "type": "event"
    },
    {
      "inputs": [],
      "name": "name",
      "outputs": [
        {
          "internalType": "string",
          "name": "",
          "type": "string"
        }
      ],
      "stateMutability": "view",
      "type": "function",
      "constant": true
    },
    {
      "inputs": [],
      "name": "postCount",
      "outputs": [
        {
          "internalType": "uint256",
          "name": "",
          "type": "uint256"
        }
      ],
      "stateMutability": "view",
      "type": "function",
      "constant": true
    },
    {
      "inputs": [
        {
          "internalType": "uint256",
          "name": "",
          "type": "uint256"
        }
      ],
      "name": "posts",
      "outputs": [
        {
          "internalType": "uint256",
          "name": "id",
          "type": "uint256"
        },
        {
          "internalType": "string",
          "name": "message",
          "type": "string"
        },
        {
          "internalType": "string",
          "name": "teacher",
          "type": "string"
        },
        {
          "internalType": "string",
          "name": "year",
          "type": "string"
        },
        {
          "internalType": "address",
          "name": "author",
          "type": "address"
        },
        {
          "internalType": "string",
          "name": "image",
          "type": "string"
        }
      ],
      "stateMutability": "view",
      "type": "function",
      "constant": true
    },
    {
      "inputs": [
        {
          "internalType": "string",
          "name": "_message",
          "type": "string"
        },
        {
          "internalType": "string",
          "name": "_year",
          "type": "string"
        },
        {
          "internalType": "string",
          "name": "_teacher",
          "type": "string"
        },
        {
          "internalType": "string",
          "name": "_image",
          "type": "string"
        }
      ],
      "name": "addPost",
      "outputs": [],
      "stateMutability": "nonpayable",
      "type": "function"
    }
  ],
  "bytecode": "0x6080604052600060015534801561001557600080fd5b506040518060400160405280600a81526020017f446967696e6f746963650000000000000000000000000000000000000000000081525060009080519060200190610061929190610067565b5061016b565b82805461007390610139565b90600052602060002090601f01602090048101928261009557600085556100dc565b82601f106100ae57805160ff19168380011785556100dc565b828001600101855582156100dc579182015b828111156100db5782518255916020019190600101906100c0565b5b5090506100e991906100ed565b5090565b5b808211156101065760008160009055506001016100ee565b5090565b7f4e487b7100000000000000000000000000000000000000000000000000000000600052602260045260246000fd5b6000600282049050600182168061015157607f821691505b602082108114156101655761016461010a565b5b50919050565b610bad806200017b6000396000f3fe608060405234801561001057600080fd5b506004361061004c5760003560e01c806306fdde03146100515780630b1e7f831461006f57806317906c2e146100a45780634c57e97a146100c2575b600080fd5b6100596100de565b6040516100669190610711565b60405180910390f35b6100896004803603810190610084919061077d565b61016c565b60405161009b969594939291906107fa565b60405180910390f35b6100ac6103e8565b6040516100b99190610877565b60405180910390f35b6100dc60048036038101906100d791906109c7565b6103ee565b005b600080546100eb90610acd565b80601f016020809104026020016040519081016040528092919081815260200182805461011790610acd565b80156101645780601f1061013957610100808354040283529160200191610164565b820191906000526020600020905b81548152906001019060200180831161014757829003601f168201915b505050505081565b600260205280600052604060002060009150905080600001549080600101805461019590610acd565b80601f01602080910402602001604051908101604052809291908181526020018280546101c190610acd565b801561020e5780601f106101e35761010080835404028352916020019161020e565b820191906000526020600020905b8154815290600101906020018083116101f157829003601f168201915b50505050509080600201805461022390610acd565b80601f016020809104026020016040519081016040528092919081815260200182805461024f90610acd565b801561029c5780601f106102715761010080835404028352916020019161029c565b820191906000526020600020905b81548152906001019060200180831161027f57829003601f168201915b5050505050908060030180546102b190610acd565b80601f01602080910402602001604051908101604052809291908181526020018280546102dd90610acd565b801561032a5780601f106102ff5761010080835404028352916020019161032a565b820191906000526020600020905b81548152906001019060200180831161030d57829003601f168201915b5050505050908060040160009054906101000a900473ffffffffffffffffffffffffffffffffffffffff169080600501805461036590610acd565b80601f016020809104026020016040519081016040528092919081815260200182805461039190610acd565b80156103de5780601f106103b3576101008083540402835291602001916103de565b820191906000526020600020905b8154815290600101906020018083116103c157829003601f168201915b5050505050905086565b60015481565b60008451116103fc57600080fd5b600083511161040a57600080fd5b600082511161041857600080fd5b600073ffffffffffffffffffffffffffffffffffffffff163373ffffffffffffffffffffffffffffffffffffffff16141561045257600080fd5b6001600081548092919061046590610b2e565b91905055506040518060c0016040528060015481526020018581526020018381526020018481526020013373ffffffffffffffffffffffffffffffffffffffff168152602001828152506002600060015481526020019081526020016000206000820151816000015560208201518160010190805190602001906104ea9291906105d5565b5060408201518160020190805190602001906105079291906105d5565b5060608201518160030190805190602001906105249291906105d5565b5060808201518160040160006101000a81548173ffffffffffffffffffffffffffffffffffffffff021916908373ffffffffffffffffffffffffffffffffffffffff16021790555060a08201518160050190805190602001906105889291906105d5565b509050507f0a332929a8a4ede60834909173d3cf4490190020ef99481db8fd9e91d887ec8860015485848633866040516105c7969594939291906107fa565b60405180910390a150505050565b8280546105e190610acd565b90600052602060002090601f016020900481019282610603576000855561064a565b82601f1061061c57805160ff191683800117855561064a565b8280016001018555821561064a579182015b8281111561064957825182559160200191906001019061062e565b5b509050610657919061065b565b5090565b5b8082111561067457600081600090555060010161065c565b5090565b600081519050919050565b600082825260208201905092915050565b60005b838110156106b2578082015181840152602081019050610697565b838111156106c1576000848401525b50505050565b6000601f19601f8301169050919050565b60006106e382610678565b6106ed8185610683565b93506106fd818560208601610694565b610706816106c7565b840191505092915050565b6000602082019050818103600083015261072b81846106d8565b905092915050565b6000604051905090565b600080fd5b600080fd5b6000819050919050565b61075a81610747565b811461076557600080fd5b50565b60008135905061077781610751565b92915050565b6000602082840312156107935761079261073d565b5b60006107a184828501610768565b91505092915050565b6107b381610747565b82525050565b600073ffffffffffffffffffffffffffffffffffffffff82169050919050565b60006107e4826107b9565b9050919050565b6107f4816107d9565b82525050565b600060c08201905061080f60008301896107aa565b818103602083015261082181886106d8565b9050818103604083015261083581876106d8565b9050818103606083015261084981866106d8565b905061085860808301856107eb565b81810360a083015261086a81846106d8565b9050979650505050505050565b600060208201905061088c60008301846107aa565b92915050565b600080fd5b600080fd5b7f4e487b7100000000000000000000000000000000000000000000000000000000600052604160045260246000fd5b6108d4826106c7565b810181811067ffffffffffffffff821117156108f3576108f261089c565b5b80604052505050565b6000610906610733565b905061091282826108cb565b919050565b600067ffffffffffffffff8211156109325761093161089c565b5b61093b826106c7565b9050602081019050919050565b82818337600083830152505050565b600061096a61096584610917565b6108fc565b90508281526020810184848401111561098657610985610897565b5b610991848285610948565b509392505050565b600082601f8301126109ae576109ad610892565b5b81356109be848260208601610957565b91505092915050565b600080600080608085870312156109e1576109e061073d565b5b600085013567ffffffffffffffff8111156109ff576109fe610742565b5b610a0b87828801610999565b945050602085013567ffffffffffffffff811115610a2c57610a2b610742565b5b610a3887828801610999565b935050604085013567ffffffffffffffff811115610a5957610a58610742565b5b610a6587828801610999565b925050606085013567ffffffffffffffff811115610a8657610a85610742565b5b610a9287828801610999565b91505092959194509250565b7f4e487b7100000000000000000000000000000000000000000000000000000000600052602260045260246000fd5b60006002820490506001821680610ae557607f821691505b60208210811415610af957610af8610a9e565b5b50919050565b7f4e487b7100000000000000000000000000000000000000000000000000000000600052601160045260246000fd5b6000610b3982610747565b91507fffffffffffffffffffffffffffffffffffffffffffffffffffffffffffffffff821415610b6c57610b6b610aff565b5b60018201905091905056fea26469706673582212202b79f446a3228efefcd51071e2089c0f38eb9d18a884c110961b9d91e5e6d92b64736f6c634300080a0033",
  "immutableReferences": {},
  "source": "// SPDX-License-Identifier: MIT\r\npragma solidity ^0.8.10;\r\n\r\n//this is the Digital notice smartcontract\r\ncontract Diginotice {\r\n    string public name;\r\n\r\n    //Store posts\r\n    uint public postCount = 0;\r\n    mapping(uint => Post) public posts;\r\n\r\n\r\n    struct Post{\r\n        uint id;\r\n        string message;\r\n        string teacher;\r\n        string year;\r\n        address author;\r\n        string image;\r\n    }\r\n\r\n    event PostCreated(\r\n        uint id,\r\n        string message,\r\n        string teacher,\r\n        string year,\r\n        address author,\r\n        string image\r\n    );\r\n\r\n    constructor() public {\r\n        name = \"Diginotice\";\r\n    }\r\n\r\n    //Create posts\r\n    function addPost(string memory _message, string memory _year, string memory _teacher,string memory _image) public {\r\n\r\n        require(bytes(_message).length > 0);\r\n        require(bytes(_year).length > 0);\r\n        require(bytes(_teacher).length > 0);\r\n        require(msg.sender != address(0x0));\r\n\r\n        postCount++;\r\n\r\n        //add post to contracr\r\n        posts[postCount] = Post(postCount, _message, _teacher,_year, msg.sender,_image);\r\n\r\n        //trigger an event\r\n        emit PostCreated(postCount, _message, _teacher, _year, msg.sender,_image);\r\n\r\n    }\r\n\r\n    //Comments\r\n}\r\n",
  "sourcePath": "H:\\Final Project\\FinalProject\\Diginotice\\front-end-diginotice\\src\\contracts\\Diginotice.sol",
  "compiler": {
    "name": "solc",
    "version": "0.8.10+commit.fc410830.Emscripten.clang"
  },
  "schemaVersion": "3.4.7",
  "updatedAt": "2022-06-11T12:16:05.004Z",
  "networkType": "ethereum",
  "devdoc": {
    "kind": "dev",
    "methods": {},
    "version": 1
  },
  "userdoc": {
    "kind": "user",
    "methods": {},
    "version": 1
  }
}