{
  "contractName": "Diginotice",
  "abi": [
    {
      "inputs": [],
      "stateMutability": "nonpayable",
      "type": "constructor"
    },
    {
      "anonymous": false,
      "inputs": [
        {
          "indexed": false,
          "internalType": "uint256",
          "name": "id",
          "type": "uint256"
        },
        {
          "indexed": false,
          "internalType": "string",
          "name": "message",
          "type": "string"
        },
        {
          "indexed": false,
          "internalType": "string",
          "name": "teacher",
          "type": "string"
        },
        {
          "indexed": false,
          "internalType": "string",
          "name": "year",
          "type": "string"
        },
        {
          "indexed": false,
          "internalType": "address",
          "name": "author",
          "type": "address"
        },
        {
          "indexed": false,
          "internalType": "string",
          "name": "imageHash",
          "type": "string"
        },
        {
          "indexed": false,
          "internalType": "string",
          "name": "date",
          "type": "string"
        },
        {
          "indexed": false,
          "internalType": "string",
          "name": "time",
          "type": "string"
        }
      ],
      "name": "PostCreated",
      "type": "event"
    },
    {
      "inputs": [],
      "name": "name",
      "outputs": [
        {
          "internalType": "string",
          "name": "",
          "type": "string"
        }
      ],
      "stateMutability": "view",
      "type": "function",
      "constant": true
    },
    {
      "inputs": [],
      "name": "postCount",
      "outputs": [
        {
          "internalType": "uint256",
          "name": "",
          "type": "uint256"
        }
      ],
      "stateMutability": "view",
      "type": "function",
      "constant": true
    },
    {
      "inputs": [
        {
          "internalType": "uint256",
          "name": "",
          "type": "uint256"
        }
      ],
      "name": "posts",
      "outputs": [
        {
          "internalType": "uint256",
          "name": "id",
          "type": "uint256"
        },
        {
          "internalType": "string",
          "name": "message",
          "type": "string"
        },
        {
          "internalType": "string",
          "name": "teacher",
          "type": "string"
        },
        {
          "internalType": "string",
          "name": "year",
          "type": "string"
        },
        {
          "internalType": "address",
          "name": "author",
          "type": "address"
        },
        {
          "internalType": "string",
          "name": "imageHash",
          "type": "string"
        },
        {
          "internalType": "string",
          "name": "date",
          "type": "string"
        },
        {
          "internalType": "string",
          "name": "time",
          "type": "string"
        }
      ],
      "stateMutability": "view",
      "type": "function",
      "constant": true
    },
    {
      "inputs": [
        {
          "internalType": "string",
          "name": "_message",
          "type": "string"
        },
        {
          "internalType": "string",
          "name": "_year",
          "type": "string"
        },
        {
          "internalType": "string",
          "name": "_teacher",
          "type": "string"
        },
        {
          "internalType": "string",
          "name": "_image",
          "type": "string"
        },
        {
          "internalType": "string",
          "name": "_date",
          "type": "string"
        },
        {
          "internalType": "string",
          "name": "_time",
          "type": "string"
        }
      ],
      "name": "addPost",
      "outputs": [],
      "stateMutability": "nonpayable",
      "type": "function"
    }
  ],
  "bytecode": "0x608060405260006001553480156200001657600080fd5b506040518060400160405280600a81526020017f446967696e6f746963650000000000000000000000000000000000000000000081525060009080519060200190620000649291906200006b565b5062000180565b82805462000079906200014a565b90600052602060002090601f0160209004810192826200009d5760008555620000e9565b82601f10620000b857805160ff1916838001178555620000e9565b82800160010185558215620000e9579182015b82811115620000e8578251825591602001919060010190620000cb565b5b509050620000f89190620000fc565b5090565b5b8082111562000117576000816000905550600101620000fd565b5090565b7f4e487b7100000000000000000000000000000000000000000000000000000000600052602260045260246000fd5b600060028204905060018216806200016357607f821691505b602082108114156200017a57620001796200011b565b5b50919050565b610da180620001906000396000f3fe608060405234801561001057600080fd5b506004361061004c5760003560e01c806306fdde03146100515780630b1e7f831461006f57806317906c2e146100a65780639e913a78146100c4575b600080fd5b6100596100e0565b604051610066919061087c565b60405180910390f35b610089600480360381019061008491906108e8565b61016e565b60405161009d989796959493929190610965565b60405180910390f35b6100ae610506565b6040516100bb9190610a0d565b60405180910390f35b6100de60048036038101906100d99190610b5d565b61050c565b005b600080546100ed90610cc1565b80601f016020809104026020016040519081016040528092919081815260200182805461011990610cc1565b80156101665780601f1061013b57610100808354040283529160200191610166565b820191906000526020600020905b81548152906001019060200180831161014957829003601f168201915b505050505081565b600260205280600052604060002060009150905080600001549080600101805461019790610cc1565b80601f01602080910402602001604051908101604052809291908181526020018280546101c390610cc1565b80156102105780601f106101e557610100808354040283529160200191610210565b820191906000526020600020905b8154815290600101906020018083116101f357829003601f168201915b50505050509080600201805461022590610cc1565b80601f016020809104026020016040519081016040528092919081815260200182805461025190610cc1565b801561029e5780601f106102735761010080835404028352916020019161029e565b820191906000526020600020905b81548152906001019060200180831161028157829003601f168201915b5050505050908060030180546102b390610cc1565b80601f01602080910402602001604051908101604052809291908181526020018280546102df90610cc1565b801561032c5780601f106103015761010080835404028352916020019161032c565b820191906000526020600020905b81548152906001019060200180831161030f57829003601f168201915b5050505050908060040160009054906101000a900473ffffffffffffffffffffffffffffffffffffffff169080600501805461036790610cc1565b80601f016020809104026020016040519081016040528092919081815260200182805461039390610cc1565b80156103e05780601f106103b5576101008083540402835291602001916103e0565b820191906000526020600020905b8154815290600101906020018083116103c357829003601f168201915b5050505050908060060180546103f590610cc1565b80601f016020809104026020016040519081016040528092919081815260200182805461042190610cc1565b801561046e5780601f106104435761010080835404028352916020019161046e565b820191906000526020600020905b81548152906001019060200180831161045157829003601f168201915b50505050509080600701805461048390610cc1565b80601f01602080910402602001604051908101604052809291908181526020018280546104af90610cc1565b80156104fc5780601f106104d1576101008083540402835291602001916104fc565b820191906000526020600020905b8154815290600101906020018083116104df57829003601f168201915b5050505050905088565b60015481565b600086511161051a57600080fd5b600085511161052857600080fd5b600084511161053657600080fd5b600073ffffffffffffffffffffffffffffffffffffffff163373ffffffffffffffffffffffffffffffffffffffff16141561057057600080fd5b6001600081548092919061058390610d22565b919050555060405180610100016040528060015481526020018781526020018581526020018681526020013373ffffffffffffffffffffffffffffffffffffffff16815260200184815260200183815260200182815250600260006001548152602001908152602001600020600082015181600001556020820151816001019080519060200190610615929190610740565b506040820151816002019080519060200190610632929190610740565b50606082015181600301908051906020019061064f929190610740565b5060808201518160040160006101000a81548173ffffffffffffffffffffffffffffffffffffffff021916908373ffffffffffffffffffffffffffffffffffffffff16021790555060a08201518160050190805190602001906106b3929190610740565b5060c08201518160060190805190602001906106d0929190610740565b5060e08201518160070190805190602001906106ed929190610740565b509050507ffa95908ecb41f277f834ed84d79e6b9c73891425278d749ca6e6a9ffcc0ae1b260015487868833888888604051610730989796959493929190610965565b60405180910390a1505050505050565b82805461074c90610cc1565b90600052602060002090601f01602090048101928261076e57600085556107b5565b82601f1061078757805160ff19168380011785556107b5565b828001600101855582156107b5579182015b828111156107b4578251825591602001919060010190610799565b5b5090506107c291906107c6565b5090565b5b808211156107df5760008160009055506001016107c7565b5090565b600081519050919050565b600082825260208201905092915050565b60005b8381101561081d578082015181840152602081019050610802565b8381111561082c576000848401525b50505050565b6000601f19601f8301169050919050565b600061084e826107e3565b61085881856107ee565b93506108688185602086016107ff565b61087181610832565b840191505092915050565b600060208201905081810360008301526108968184610843565b905092915050565b6000604051905090565b600080fd5b600080fd5b6000819050919050565b6108c5816108b2565b81146108d057600080fd5b50565b6000813590506108e2816108bc565b92915050565b6000602082840312156108fe576108fd6108a8565b5b600061090c848285016108d3565b91505092915050565b61091e816108b2565b82525050565b600073ffffffffffffffffffffffffffffffffffffffff82169050919050565b600061094f82610924565b9050919050565b61095f81610944565b82525050565b60006101008201905061097b600083018b610915565b818103602083015261098d818a610843565b905081810360408301526109a18189610843565b905081810360608301526109b58188610843565b90506109c46080830187610956565b81810360a08301526109d68186610843565b905081810360c08301526109ea8185610843565b905081810360e08301526109fe8184610843565b90509998505050505050505050565b6000602082019050610a226000830184610915565b92915050565b600080fd5b600080fd5b7f4e487b7100000000000000000000000000000000000000000000000000000000600052604160045260246000fd5b610a6a82610832565b810181811067ffffffffffffffff82111715610a8957610a88610a32565b5b80604052505050565b6000610a9c61089e565b9050610aa88282610a61565b919050565b600067ffffffffffffffff821115610ac857610ac7610a32565b5b610ad182610832565b9050602081019050919050565b82818337600083830152505050565b6000610b00610afb84610aad565b610a92565b905082815260208101848484011115610b1c57610b1b610a2d565b5b610b27848285610ade565b509392505050565b600082601f830112610b4457610b43610a28565b5b8135610b54848260208601610aed565b91505092915050565b60008060008060008060c08789031215610b7a57610b796108a8565b5b600087013567ffffffffffffffff811115610b9857610b976108ad565b5b610ba489828a01610b2f565b965050602087013567ffffffffffffffff811115610bc557610bc46108ad565b5b610bd189828a01610b2f565b955050604087013567ffffffffffffffff811115610bf257610bf16108ad565b5b610bfe89828a01610b2f565b945050606087013567ffffffffffffffff811115610c1f57610c1e6108ad565b5b610c2b89828a01610b2f565b935050608087013567ffffffffffffffff811115610c4c57610c4b6108ad565b5b610c5889828a01610b2f565b92505060a087013567ffffffffffffffff811115610c7957610c786108ad565b5b610c8589828a01610b2f565b9150509295509295509295565b7f4e487b7100000000000000000000000000000000000000000000000000000000600052602260045260246000fd5b60006002820490506001821680610cd957607f821691505b60208210811415610ced57610cec610c92565b5b50919050565b7f4e487b7100000000000000000000000000000000000000000000000000000000600052601160045260246000fd5b6000610d2d826108b2565b91507fffffffffffffffffffffffffffffffffffffffffffffffffffffffffffffffff821415610d6057610d5f610cf3565b5b60018201905091905056fea26469706673582212207d5d3d71ed6d0e80aad657d56c021ca9b7a4ba513a594d97bb2b83b29520458664736f6c634300080a0033",
  "immutableReferences": {},
  "source": "// SPDX-License-Identifier: MIT\r\npragma solidity ^0.8.10;\r\n\r\n//this is the Digital notice smartcontract\r\ncontract Diginotice {\r\n    string public name;\r\n\r\n    //Store posts\r\n    uint public postCount = 0;\r\n    mapping(uint => Post) public posts;\r\n\r\n\r\n    struct Post{\r\n        uint id;\r\n        string message;\r\n        string teacher;\r\n        string year;\r\n        address author;\r\n        string imageHash;\r\n        string date;\r\n        string time;\r\n    }\r\n\r\n    event PostCreated(\r\n        uint id,\r\n        string message,\r\n        string teacher,\r\n        string year,\r\n        address author,\r\n        string imageHash,\r\n        string date,\r\n        string time\r\n    );\r\n\r\n    constructor() public {\r\n        name = \"Diginotice\";\r\n    }\r\n\r\n    //Create posts\r\n    function addPost(string memory _message, string memory _year, string memory _teacher,string memory _image,string memory _date,\r\n        string memory _time) public {\r\n\r\n        require(bytes(_message).length > 0);\r\n        require(bytes(_year).length > 0);\r\n        require(bytes(_teacher).length > 0);\r\n        require(msg.sender != address(0x0));\r\n\r\n        postCount++;\r\n\r\n        //add post to contracr\r\n        posts[postCount] = Post(postCount, _message, _teacher,_year, msg.sender,_image,_date,_time);\r\n\r\n        //trigger an event\r\n        emit PostCreated(postCount, _message, _teacher, _year, msg.sender,_image,_date,_time);\r\n\r\n    }\r\n\r\n    //Comments\r\n}\r\n",
  "sourcePath": "H:\\Final Project\\FinalProject\\Diginotice\\front-end-diginotice\\src\\contracts\\Diginotice.sol",
  "compiler": {
    "name": "solc",
    "version": "0.8.10+commit.fc410830.Emscripten.clang"
  },
  "schemaVersion": "3.4.7",
  "updatedAt": "2022-06-17T05:07:52.998Z",
  "networkType": "ethereum",
  "devdoc": {
    "kind": "dev",
    "methods": {},
    "version": 1
  },
  "userdoc": {
    "kind": "user",
    "methods": {},
    "version": 1
  }
}