{
  "contractName": "Diginotice",
  "abi": [
    {
      "inputs": [],
      "stateMutability": "nonpayable",
      "type": "constructor"
    },
    {
      "anonymous": false,
      "inputs": [
        {
          "indexed": false,
          "internalType": "uint256",
          "name": "id",
          "type": "uint256"
        },
        {
          "indexed": false,
          "internalType": "string",
          "name": "message",
          "type": "string"
        },
        {
          "indexed": false,
          "internalType": "string",
          "name": "teacher",
          "type": "string"
        },
        {
          "indexed": false,
          "internalType": "string",
          "name": "year",
          "type": "string"
        },
        {
          "indexed": false,
          "internalType": "address",
          "name": "author",
          "type": "address"
        }
      ],
      "name": "PostCreated",
      "type": "event"
    },
    {
      "inputs": [],
      "name": "name",
      "outputs": [
        {
          "internalType": "string",
          "name": "",
          "type": "string"
        }
      ],
      "stateMutability": "view",
      "type": "function",
      "constant": true
    },
    {
      "inputs": [],
      "name": "postCount",
      "outputs": [
        {
          "internalType": "uint256",
          "name": "",
          "type": "uint256"
        }
      ],
      "stateMutability": "view",
      "type": "function",
      "constant": true
    },
    {
      "inputs": [
        {
          "internalType": "uint256",
          "name": "",
          "type": "uint256"
        }
      ],
      "name": "posts",
      "outputs": [
        {
          "internalType": "uint256",
          "name": "id",
          "type": "uint256"
        },
        {
          "internalType": "string",
          "name": "message",
          "type": "string"
        },
        {
          "internalType": "string",
          "name": "teacher",
          "type": "string"
        },
        {
          "internalType": "string",
          "name": "year",
          "type": "string"
        },
        {
          "internalType": "address",
          "name": "author",
          "type": "address"
        }
      ],
      "stateMutability": "view",
      "type": "function",
      "constant": true
    },
    {
      "inputs": [
        {
          "internalType": "string",
          "name": "_message",
          "type": "string"
        },
        {
          "internalType": "string",
          "name": "_year",
          "type": "string"
        },
        {
          "internalType": "string",
          "name": "_teacher",
          "type": "string"
        }
      ],
      "name": "addPost",
      "outputs": [],
      "stateMutability": "nonpayable",
      "type": "function"
    }
  ],
  "bytecode": "0x6080604052600060015534801561001557600080fd5b506040518060400160405280600a81526020017f446967696e6f746963650000000000000000000000000000000000000000000081525060009080519060200190610061929190610067565b5061016b565b82805461007390610139565b90600052602060002090601f01602090048101928261009557600085556100dc565b82601f106100ae57805160ff19168380011785556100dc565b828001600101855582156100dc579182015b828111156100db5782518255916020019190600101906100c0565b5b5090506100e991906100ed565b5090565b5b808211156101065760008160009055506001016100ee565b5090565b7f4e487b7100000000000000000000000000000000000000000000000000000000600052602260045260246000fd5b6000600282049050600182168061015157607f821691505b602082108114156101655761016461010a565b5b50919050565b610ab38061017a6000396000f3fe608060405234801561001057600080fd5b506004361061004c5760003560e01c806306fdde03146100515780630b1e7f831461006f57806317906c2e146100a3578063224ae14a146100c1575b600080fd5b6100596100dd565b604051610066919061065c565b60405180910390f35b610089600480360381019061008491906106c8565b61016b565b60405161009a959493929190610745565b60405180910390f35b6100ab610359565b6040516100b891906107ad565b60405180910390f35b6100db60048036038101906100d691906108fd565b61035f565b005b600080546100ea906109d3565b80601f0160208091040260200160405190810160405280929190818152602001828054610116906109d3565b80156101635780601f1061013857610100808354040283529160200191610163565b820191906000526020600020905b81548152906001019060200180831161014657829003601f168201915b505050505081565b6002602052806000526040600020600091509050806000015490806001018054610194906109d3565b80601f01602080910402602001604051908101604052809291908181526020018280546101c0906109d3565b801561020d5780601f106101e25761010080835404028352916020019161020d565b820191906000526020600020905b8154815290600101906020018083116101f057829003601f168201915b505050505090806002018054610222906109d3565b80601f016020809104026020016040519081016040528092919081815260200182805461024e906109d3565b801561029b5780601f106102705761010080835404028352916020019161029b565b820191906000526020600020905b81548152906001019060200180831161027e57829003601f168201915b5050505050908060030180546102b0906109d3565b80601f01602080910402602001604051908101604052809291908181526020018280546102dc906109d3565b80156103295780601f106102fe57610100808354040283529160200191610329565b820191906000526020600020905b81548152906001019060200180831161030c57829003601f168201915b5050505050908060040160009054906101000a900473ffffffffffffffffffffffffffffffffffffffff16905085565b60015481565b600083511161036d57600080fd5b600082511161037b57600080fd5b600081511161038957600080fd5b600073ffffffffffffffffffffffffffffffffffffffff163373ffffffffffffffffffffffffffffffffffffffff1614156103c357600080fd5b600160008154809291906103d690610a34565b91905055506040518060a0016040528060015481526020018481526020018281526020018381526020013373ffffffffffffffffffffffffffffffffffffffff16815250600260006001548152602001908152602001600020600082015181600001556020820151816001019080519060200190610455929190610520565b506040820151816002019080519060200190610472929190610520565b50606082015181600301908051906020019061048f929190610520565b5060808201518160040160006101000a81548173ffffffffffffffffffffffffffffffffffffffff021916908373ffffffffffffffffffffffffffffffffffffffff1602179055509050507f50c12bd688c595315f0d353d1459d5ce4cfa2013ad3595250f440198265ba0d660015484838533604051610513959493929190610745565b60405180910390a1505050565b82805461052c906109d3565b90600052602060002090601f01602090048101928261054e5760008555610595565b82601f1061056757805160ff1916838001178555610595565b82800160010185558215610595579182015b82811115610594578251825591602001919060010190610579565b5b5090506105a291906105a6565b5090565b5b808211156105bf5760008160009055506001016105a7565b5090565b600081519050919050565b600082825260208201905092915050565b60005b838110156105fd5780820151818401526020810190506105e2565b8381111561060c576000848401525b50505050565b6000601f19601f8301169050919050565b600061062e826105c3565b61063881856105ce565b93506106488185602086016105df565b61065181610612565b840191505092915050565b600060208201905081810360008301526106768184610623565b905092915050565b6000604051905090565b600080fd5b600080fd5b6000819050919050565b6106a581610692565b81146106b057600080fd5b50565b6000813590506106c28161069c565b92915050565b6000602082840312156106de576106dd610688565b5b60006106ec848285016106b3565b91505092915050565b6106fe81610692565b82525050565b600073ffffffffffffffffffffffffffffffffffffffff82169050919050565b600061072f82610704565b9050919050565b61073f81610724565b82525050565b600060a08201905061075a60008301886106f5565b818103602083015261076c8187610623565b905081810360408301526107808186610623565b905081810360608301526107948185610623565b90506107a36080830184610736565b9695505050505050565b60006020820190506107c260008301846106f5565b92915050565b600080fd5b600080fd5b7f4e487b7100000000000000000000000000000000000000000000000000000000600052604160045260246000fd5b61080a82610612565b810181811067ffffffffffffffff82111715610829576108286107d2565b5b80604052505050565b600061083c61067e565b90506108488282610801565b919050565b600067ffffffffffffffff821115610868576108676107d2565b5b61087182610612565b9050602081019050919050565b82818337600083830152505050565b60006108a061089b8461084d565b610832565b9050828152602081018484840111156108bc576108bb6107cd565b5b6108c784828561087e565b509392505050565b600082601f8301126108e4576108e36107c8565b5b81356108f484826020860161088d565b91505092915050565b60008060006060848603121561091657610915610688565b5b600084013567ffffffffffffffff8111156109345761093361068d565b5b610940868287016108cf565b935050602084013567ffffffffffffffff8111156109615761096061068d565b5b61096d868287016108cf565b925050604084013567ffffffffffffffff81111561098e5761098d61068d565b5b61099a868287016108cf565b9150509250925092565b7f4e487b7100000000000000000000000000000000000000000000000000000000600052602260045260246000fd5b600060028204905060018216806109eb57607f821691505b602082108114156109ff576109fe6109a4565b5b50919050565b7f4e487b7100000000000000000000000000000000000000000000000000000000600052601160045260246000fd5b6000610a3f82610692565b91507fffffffffffffffffffffffffffffffffffffffffffffffffffffffffffffffff821415610a7257610a71610a05565b5b60018201905091905056fea2646970667358221220ca408ab40dcadc235b85287ce4a2047c710769bbc388b327054ee47aa82dc4c364736f6c634300080a0033",
  "immutableReferences": {},
  "source": "// SPDX-License-Identifier: MIT\r\npragma solidity ^0.8.10;\r\n\r\n//this is the Digital notice smartcontract\r\ncontract Diginotice {\r\n    string public name;\r\n\r\n    //Store posts\r\n    uint public postCount = 0;\r\n    mapping(uint => Post) public posts;\r\n\r\n\r\n    struct Post{\r\n        uint id;\r\n        string message;\r\n        string teacher;\r\n        string year;\r\n        address author;\r\n    }\r\n\r\n    event PostCreated(\r\n        uint id,\r\n        string message,\r\n        string teacher,\r\n        string year,\r\n        address author\r\n    );\r\n\r\n    constructor() public {\r\n        name = \"Diginotice\";\r\n    }\r\n\r\n    //Create posts\r\n    function addPost(string memory _message, string memory _year, string memory _teacher) public {\r\n\r\n        require(bytes(_message).length > 0);\r\n        require(bytes(_year).length > 0);\r\n        require(bytes(_teacher).length > 0);\r\n        require(msg.sender != address(0x0));\r\n\r\n        postCount++;\r\n\r\n        //add post to contracr\r\n        posts[postCount] = Post(postCount, _message, _teacher,_year, msg.sender);\r\n\r\n        //trigger an event\r\n        emit PostCreated(postCount, _message, _teacher, _year, msg.sender);\r\n\r\n    }\r\n\r\n    //Comments\r\n}\r\n",
  "sourcePath": "H:\\Final Project\\FinalProject\\Diginotice\\front-end-diginotice\\src\\contracts\\Diginotice.sol",
  "compiler": {
    "name": "solc",
    "version": "0.8.10+commit.fc410830.Emscripten.clang"
  },
  "schemaVersion": "3.4.7",
  "updatedAt": "2022-05-17T16:07:49.245Z",
  "networkType": "ethereum",
  "devdoc": {
    "kind": "dev",
    "methods": {},
    "version": 1
  },
  "userdoc": {
    "kind": "user",
    "methods": {},
    "version": 1
  }
}