{
  "contractName": "User",
  "abi": [
    {
      "inputs": [],
      "stateMutability": "nonpayable",
      "type": "constructor"
    },
    {
      "anonymous": false,
      "inputs": [
        {
          "indexed": false,
          "internalType": "uint256",
          "name": "id",
          "type": "uint256"
        },
        {
          "indexed": false,
          "internalType": "string",
          "name": "name",
          "type": "string"
        },
        {
          "indexed": false,
          "internalType": "string",
          "name": "address1",
          "type": "string"
        }
      ],
      "name": "StudentCreated",
      "type": "event"
    },
    {
      "anonymous": false,
      "inputs": [
        {
          "indexed": false,
          "internalType": "uint256",
          "name": "id",
          "type": "uint256"
        },
        {
          "indexed": false,
          "internalType": "string",
          "name": "name",
          "type": "string"
        },
        {
          "indexed": false,
          "internalType": "string",
          "name": "address1",
          "type": "string"
        }
      ],
      "name": "TeacherCreated",
      "type": "event"
    },
    {
      "inputs": [],
      "name": "name",
      "outputs": [
        {
          "internalType": "string",
          "name": "",
          "type": "string"
        }
      ],
      "stateMutability": "view",
      "type": "function",
      "constant": true
    },
    {
      "inputs": [],
      "name": "studentCount",
      "outputs": [
        {
          "internalType": "uint256",
          "name": "",
          "type": "uint256"
        }
      ],
      "stateMutability": "view",
      "type": "function",
      "constant": true
    },
    {
      "inputs": [
        {
          "internalType": "uint256",
          "name": "",
          "type": "uint256"
        }
      ],
      "name": "students",
      "outputs": [
        {
          "internalType": "uint256",
          "name": "id",
          "type": "uint256"
        },
        {
          "internalType": "string",
          "name": "name",
          "type": "string"
        },
        {
          "internalType": "string",
          "name": "address1",
          "type": "string"
        }
      ],
      "stateMutability": "view",
      "type": "function",
      "constant": true
    },
    {
      "inputs": [],
      "name": "teacherCount",
      "outputs": [
        {
          "internalType": "uint256",
          "name": "",
          "type": "uint256"
        }
      ],
      "stateMutability": "view",
      "type": "function",
      "constant": true
    },
    {
      "inputs": [
        {
          "internalType": "uint256",
          "name": "",
          "type": "uint256"
        }
      ],
      "name": "teachers",
      "outputs": [
        {
          "internalType": "uint256",
          "name": "id",
          "type": "uint256"
        },
        {
          "internalType": "string",
          "name": "name",
          "type": "string"
        },
        {
          "internalType": "string",
          "name": "address1",
          "type": "string"
        }
      ],
      "stateMutability": "view",
      "type": "function",
      "constant": true
    },
    {
      "inputs": [
        {
          "internalType": "string",
          "name": "_name",
          "type": "string"
        },
        {
          "internalType": "string",
          "name": "_address1",
          "type": "string"
        }
      ],
      "name": "addStudent",
      "outputs": [],
      "stateMutability": "nonpayable",
      "type": "function"
    },
    {
      "inputs": [
        {
          "internalType": "string",
          "name": "_name",
          "type": "string"
        },
        {
          "internalType": "string",
          "name": "_address1",
          "type": "string"
        }
      ],
      "name": "addTeacher",
      "outputs": [],
      "stateMutability": "nonpayable",
      "type": "function"
    }
  ],
  "bytecode": "0x60806040526000600155600060025534801561001a57600080fd5b506040518060400160405280600481526020017f55736572000000000000000000000000000000000000000000000000000000008152506000908051906020019061006692919061006c565b50610170565b8280546100789061013e565b90600052602060002090601f01602090048101928261009a57600085556100e1565b82601f106100b357805160ff19168380011785556100e1565b828001600101855582156100e1579182015b828111156100e05782518255916020019190600101906100c5565b5b5090506100ee91906100f2565b5090565b5b8082111561010b5760008160009055506001016100f3565b5090565b7f4e487b7100000000000000000000000000000000000000000000000000000000600052602260045260246000fd5b6000600282049050600182168061015657607f821691505b6020821081141561016a5761016961010f565b5b50919050565b610b6180620001806000396000f3fe608060405234801561001057600080fd5b506004361061007d5760003560e01c806346be31361161005b57806346be313614610104578063544f35c114610122578063e27bb1f71461013e578063e581f9ee1461015a5761007d565b806306ead22e1461008257806306fdde03146100b457806334ac0b40146100d2575b600080fd5b61009c6004803603810190610097919061074e565b610178565b6040516100ab93929190610823565b60405180910390f35b6100bc6102b2565b6040516100c99190610868565b60405180910390f35b6100ec60048036038101906100e7919061074e565b610340565b6040516100fb93929190610823565b60405180910390f35b61010c61047a565b604051610119919061088a565b60405180910390f35b61013c600480360381019061013791906109da565b610480565b005b610158600480360381019061015391906109da565b61056d565b005b61016261065b565b60405161016f919061088a565b60405180910390f35b60046020528060005260406000206000915090508060000154908060010180546101a190610a81565b80601f01602080910402602001604051908101604052809291908181526020018280546101cd90610a81565b801561021a5780601f106101ef5761010080835404028352916020019161021a565b820191906000526020600020905b8154815290600101906020018083116101fd57829003601f168201915b50505050509080600201805461022f90610a81565b80601f016020809104026020016040519081016040528092919081815260200182805461025b90610a81565b80156102a85780601f1061027d576101008083540402835291602001916102a8565b820191906000526020600020905b81548152906001019060200180831161028b57829003601f168201915b5050505050905083565b600080546102bf90610a81565b80601f01602080910402602001604051908101604052809291908181526020018280546102eb90610a81565b80156103385780601f1061030d57610100808354040283529160200191610338565b820191906000526020600020905b81548152906001019060200180831161031b57829003601f168201915b505050505081565b600360205280600052604060002060009150905080600001549080600101805461036990610a81565b80601f016020809104026020016040519081016040528092919081815260200182805461039590610a81565b80156103e25780601f106103b7576101008083540402835291602001916103e2565b820191906000526020600020905b8154815290600101906020018083116103c557829003601f168201915b5050505050908060020180546103f790610a81565b80601f016020809104026020016040519081016040528092919081815260200182805461042390610a81565b80156104705780601f1061044557610100808354040283529160200191610470565b820191906000526020600020905b81548152906001019060200180831161045357829003601f168201915b5050505050905083565b60015481565b600082511161048e57600080fd5b600081511161049c57600080fd5b600160008154809291906104af90610ae2565b9190505550604051806060016040528060015481526020018381526020018281525060036000600154815260200190815260200160002060008201518160000155602082015181600101908051906020019061050c929190610661565b506040820151816002019080519060200190610529929190610661565b509050507e264926d7002738975a6b7a82c1b7416f3c17367e9881f1861bc02a5f174c89600154838360405161056193929190610823565b60405180910390a15050565b600082511161057b57600080fd5b600081511161058957600080fd5b6002600081548092919061059c90610ae2565b919050555060405180606001604052806002548152602001838152602001828152506004600060025481526020019081526020016000206000820151816000015560208201518160010190805190602001906105f9929190610661565b506040820151816002019080519060200190610616929190610661565b509050507f71e4b8df6382f4423c5a9a0cc7000027bc6ebf244cf2933a5575d0e01d1de352600254838360405161064f93929190610823565b60405180910390a15050565b60025481565b82805461066d90610a81565b90600052602060002090601f01602090048101928261068f57600085556106d6565b82601f106106a857805160ff19168380011785556106d6565b828001600101855582156106d6579182015b828111156106d55782518255916020019190600101906106ba565b5b5090506106e391906106e7565b5090565b5b808211156107005760008160009055506001016106e8565b5090565b6000604051905090565b600080fd5b600080fd5b6000819050919050565b61072b81610718565b811461073657600080fd5b50565b60008135905061074881610722565b92915050565b6000602082840312156107645761076361070e565b5b600061077284828501610739565b91505092915050565b61078481610718565b82525050565b600081519050919050565b600082825260208201905092915050565b60005b838110156107c45780820151818401526020810190506107a9565b838111156107d3576000848401525b50505050565b6000601f19601f8301169050919050565b60006107f58261078a565b6107ff8185610795565b935061080f8185602086016107a6565b610818816107d9565b840191505092915050565b6000606082019050610838600083018661077b565b818103602083015261084a81856107ea565b9050818103604083015261085e81846107ea565b9050949350505050565b6000602082019050818103600083015261088281846107ea565b905092915050565b600060208201905061089f600083018461077b565b92915050565b600080fd5b600080fd5b7f4e487b7100000000000000000000000000000000000000000000000000000000600052604160045260246000fd5b6108e7826107d9565b810181811067ffffffffffffffff82111715610906576109056108af565b5b80604052505050565b6000610919610704565b905061092582826108de565b919050565b600067ffffffffffffffff821115610945576109446108af565b5b61094e826107d9565b9050602081019050919050565b82818337600083830152505050565b600061097d6109788461092a565b61090f565b905082815260208101848484011115610999576109986108aa565b5b6109a484828561095b565b509392505050565b600082601f8301126109c1576109c06108a5565b5b81356109d184826020860161096a565b91505092915050565b600080604083850312156109f1576109f061070e565b5b600083013567ffffffffffffffff811115610a0f57610a0e610713565b5b610a1b858286016109ac565b925050602083013567ffffffffffffffff811115610a3c57610a3b610713565b5b610a48858286016109ac565b9150509250929050565b7f4e487b7100000000000000000000000000000000000000000000000000000000600052602260045260246000fd5b60006002820490506001821680610a9957607f821691505b60208210811415610aad57610aac610a52565b5b50919050565b7f4e487b7100000000000000000000000000000000000000000000000000000000600052601160045260246000fd5b6000610aed82610718565b91507fffffffffffffffffffffffffffffffffffffffffffffffffffffffffffffffff821415610b2057610b1f610ab3565b5b60018201905091905056fea264697066735822122078d218840749b422c293c079e20f717e000ed9bc0a7d1a86fbf23da156edf15f64736f6c634300080a0033",
  "immutableReferences": {},
  "source": "pragma solidity ^0.8.10;\r\n\r\ncontract User {\r\n    string public name;\r\n\r\n    uint public teacherCount = 0;\r\n    uint public studentCount = 0;\r\n\r\n    mapping(uint => Teacher) public teachers;\r\n    mapping(uint => Student) public students;\r\n\r\n\r\n    struct Teacher{\r\n        uint id;\r\n        string name;\r\n        string address1;\r\n    }\r\n\r\n    event TeacherCreated(\r\n        uint id,\r\n        string name,\r\n        string address1\r\n    );\r\n\r\n    struct Student{\r\n        uint id;\r\n        string name;\r\n        string address1;\r\n    }\r\n\r\n    event StudentCreated(\r\n        uint id,\r\n        string name,\r\n        string address1\r\n    );\r\n\r\n    constructor() public {\r\n        name = \"User\";\r\n    }\r\n\r\n    function addStudent(string memory _name, string memory _address1) public {\r\n\r\n        require(bytes(_name).length > 0);\r\n        require(bytes(_address1).length > 0);\r\n\r\n        studentCount++;\r\n\r\n        students[studentCount] = Student(studentCount, _name, _address1);\r\n\r\n        emit StudentCreated(studentCount, _name, _address1);\r\n    }\r\n\r\n    function addTeacher(string memory _name,string memory _address1) public{\r\n\r\n        require(bytes(_name).length > 0);\r\n        require(bytes(_address1).length > 0);\r\n\r\n        teacherCount++;\r\n\r\n        teachers[teacherCount] = Teacher(teacherCount, _name, _address1);\r\n\r\n        emit TeacherCreated(teacherCount, _name, _address1);\r\n    }\r\n}\r\n",
  "sourcePath": "H:\\Final Project\\FinalProject\\Diginotice\\front-end-diginotice\\src\\contracts\\User.sol",
  "compiler": {
    "name": "solc",
    "version": "0.8.10+commit.fc410830.Emscripten.clang"
  },
  "schemaVersion": "3.4.7",
  "updatedAt": "2022-06-16T17:28:24.070Z",
  "networkType": "ethereum",
  "devdoc": {
    "kind": "dev",
    "methods": {},
    "version": 1
  },
  "userdoc": {
    "kind": "user",
    "methods": {},
    "version": 1
  }
}