{
  "contractName": "Diginotice",
  "abi": [
    {
      "inputs": [],
      "name": "name",
      "outputs": [
        {
          "internalType": "string",
          "name": "",
          "type": "string"
        }
      ],
      "stateMutability": "view",
      "type": "function",
      "constant": true
    },
    {
      "inputs": [
        {
          "internalType": "uint256",
          "name": "",
          "type": "uint256"
        }
      ],
      "name": "posts",
      "outputs": [
        {
          "internalType": "uint256",
          "name": "id",
          "type": "uint256"
        },
        {
          "internalType": "string",
          "name": "hash",
          "type": "string"
        },
        {
          "internalType": "string",
          "name": "description",
          "type": "string"
        },
        {
          "internalType": "address",
          "name": "author",
          "type": "address"
        }
      ],
      "stateMutability": "view",
      "type": "function",
      "constant": true
    },
    {
      "inputs": [],
      "name": "uploadImage",
      "outputs": [],
      "stateMutability": "nonpayable",
      "type": "function"
    }
  ],
  "bytecode": "0x60806040526040518060400160405280600a81526020017f446967696e6f74696365000000000000000000000000000000000000000000008152506000908051906020019061004f929190610062565b5034801561005c57600080fd5b50610166565b82805461006e90610134565b90600052602060002090601f01602090048101928261009057600085556100d7565b82601f106100a957805160ff19168380011785556100d7565b828001600101855582156100d7579182015b828111156100d65782518255916020019190600101906100bb565b5b5090506100e491906100e8565b5090565b5b808211156101015760008160009055506001016100e9565b5090565b7f4e487b7100000000000000000000000000000000000000000000000000000000600052602260045260246000fd5b6000600282049050600182168061014c57607f821691505b602082108114156101605761015f610105565b5b50919050565b6106d6806101756000396000f3fe608060405234801561001057600080fd5b50600436106100415760003560e01c806306fdde03146100465780630b1e7f8314610064578063e09fb11914610097575b600080fd5b61004e6100a1565b60405161005b9190610512565b60405180910390f35b61007e6004803603810190610079919061056f565b61012f565b60405161008e94939291906105ec565b60405180910390f35b61009f61028f565b005b600080546100ae9061066e565b80601f01602080910402602001604051908101604052809291908181526020018280546100da9061066e565b80156101275780601f106100fc57610100808354040283529160200191610127565b820191906000526020600020905b81548152906001019060200180831161010a57829003601f168201915b505050505081565b60016020528060005260406000206000915090508060000154908060010180546101589061066e565b80601f01602080910402602001604051908101604052809291908181526020018280546101849061066e565b80156101d15780601f106101a6576101008083540402835291602001916101d1565b820191906000526020600020905b8154815290600101906020018083116101b457829003601f168201915b5050505050908060020180546101e69061066e565b80601f01602080910402602001604051908101604052809291908181526020018280546102129061066e565b801561025f5780601f106102345761010080835404028352916020019161025f565b820191906000526020600020905b81548152906001019060200180831161024257829003601f168201915b5050505050908060030160009054906101000a900473ffffffffffffffffffffffffffffffffffffffff16905084565b6040518060800160405280600181526020016040518060400160405280600681526020017f616263313233000000000000000000000000000000000000000000000000000081525081526020016040518060400160405280600581526020017f48656c6c6f0000000000000000000000000000000000000000000000000000008152508152602001600073ffffffffffffffffffffffffffffffffffffffff16815250600160006001815260200190815260200160002060008201518160000155602082015181600101908051906020019061036c9291906103d6565b5060408201518160020190805190602001906103899291906103d6565b5060608201518160030160006101000a81548173ffffffffffffffffffffffffffffffffffffffff021916908373ffffffffffffffffffffffffffffffffffffffff160217905550905050565b8280546103e29061066e565b90600052602060002090601f016020900481019282610404576000855561044b565b82601f1061041d57805160ff191683800117855561044b565b8280016001018555821561044b579182015b8281111561044a57825182559160200191906001019061042f565b5b509050610458919061045c565b5090565b5b8082111561047557600081600090555060010161045d565b5090565b600081519050919050565b600082825260208201905092915050565b60005b838110156104b3578082015181840152602081019050610498565b838111156104c2576000848401525b50505050565b6000601f19601f8301169050919050565b60006104e482610479565b6104ee8185610484565b93506104fe818560208601610495565b610507816104c8565b840191505092915050565b6000602082019050818103600083015261052c81846104d9565b905092915050565b600080fd5b6000819050919050565b61054c81610539565b811461055757600080fd5b50565b60008135905061056981610543565b92915050565b60006020828403121561058557610584610534565b5b60006105938482850161055a565b91505092915050565b6105a581610539565b82525050565b600073ffffffffffffffffffffffffffffffffffffffff82169050919050565b60006105d6826105ab565b9050919050565b6105e6816105cb565b82525050565b6000608082019050610601600083018761059c565b818103602083015261061381866104d9565b9050818103604083015261062781856104d9565b905061063660608301846105dd565b95945050505050565b7f4e487b7100000000000000000000000000000000000000000000000000000000600052602260045260246000fd5b6000600282049050600182168061068657607f821691505b6020821081141561069a5761069961063f565b5b5091905056fea26469706673582212204c2189a7d1ccc1bf610be84187366bb92b836431afd67c203cf59bd44770e1aa64736f6c634300080a0033",
  "immutableReferences": {},
  "source": "pragma solidity ^0.8.10;\n\n//this is the Digital notice smartcontract\ncontract Diginotice {\n    string public name = \"Diginotice\";\n    \n    //Store posts\n    mapping(uint => Post) public posts;\n\n    struct Post{\n        uint id;\n        string hash;\n        string description;\n        address author;\n    }\n    //Create posts\n    function uploadImage() public {\n        posts[1] = Post(1, 'abc123', 'Hello',address(0x0));\n    }\n    \n    //Comments\n}",
  "sourcePath": "/Users/shreyasbhakta/Final year project/Diginotice/contracts/Diginotice.sol",
  "compiler": {
    "name": "solc",
    "version": "0.8.10+commit.fc410830.Emscripten.clang"
  },
  "schemaVersion": "3.4.7",
  "updatedAt": "2022-05-11T03:52:59.543Z",
  "networkType": "ethereum",
  "devdoc": {
    "kind": "dev",
    "methods": {},
    "version": 1
  },
  "userdoc": {
    "kind": "user",
    "methods": {},
    "version": 1
  }
}