{
  "contractName": "Diginotice",
  "abi": [
    {
      "anonymous": false,
      "inputs": [
        {
          "indexed": false,
          "internalType": "uint256",
          "name": "id",
          "type": "uint256"
        },
        {
          "indexed": false,
          "internalType": "string",
          "name": "message",
          "type": "string"
        },
        {
          "indexed": false,
          "internalType": "string",
          "name": "teacher",
          "type": "string"
        },
        {
          "indexed": false,
          "internalType": "string",
          "name": "year",
          "type": "string"
        },
        {
          "indexed": false,
          "internalType": "address",
          "name": "author",
          "type": "address"
        }
      ],
      "name": "PostCreated",
      "type": "event"
    },
    {
      "inputs": [],
      "name": "name",
      "outputs": [
        {
          "internalType": "string",
          "name": "",
          "type": "string"
        }
      ],
      "stateMutability": "view",
      "type": "function"
    },
    {
      "inputs": [],
      "name": "postCount",
      "outputs": [
        {
          "internalType": "uint256",
          "name": "",
          "type": "uint256"
        }
      ],
      "stateMutability": "view",
      "type": "function"
    },
    {
      "inputs": [
        {
          "internalType": "uint256",
          "name": "",
          "type": "uint256"
        }
      ],
      "name": "posts",
      "outputs": [
        {
          "internalType": "uint256",
          "name": "id",
          "type": "uint256"
        },
        {
          "internalType": "string",
          "name": "message",
          "type": "string"
        },
        {
          "internalType": "string",
          "name": "teacher",
          "type": "string"
        },
        {
          "internalType": "string",
          "name": "year",
          "type": "string"
        },
        {
          "internalType": "address",
          "name": "author",
          "type": "address"
        }
      ],
      "stateMutability": "view",
      "type": "function"
    },
    {
      "inputs": [
        {
          "internalType": "string",
          "name": "_message",
          "type": "string"
        },
        {
          "internalType": "string",
          "name": "_year",
          "type": "string"
        },
        {
          "internalType": "string",
          "name": "_teacher",
          "type": "string"
        }
      ],
      "name": "addPost",
      "outputs": [],
      "stateMutability": "nonpayable",
      "type": "function"
    }
  ],
  "bytecode": "0x60806040526040518060400160405280600a81526020017f446967696e6f74696365000000000000000000000000000000000000000000008152506000908051906020019061004f929190610067565b50600060015534801561006157600080fd5b5061016b565b82805461007390610139565b90600052602060002090601f01602090048101928261009557600085556100dc565b82601f106100ae57805160ff19168380011785556100dc565b828001600101855582156100dc579182015b828111156100db5782518255916020019190600101906100c0565b5b5090506100e991906100ed565b5090565b5b808211156101065760008160009055506001016100ee565b5090565b7f4e487b7100000000000000000000000000000000000000000000000000000000600052602260045260246000fd5b6000600282049050600182168061015157607f821691505b602082108114156101655761016461010a565b5b50919050565b610ab88061017a6000396000f3fe608060405234801561001057600080fd5b506004361061004c5760003560e01c806306fdde03146100515780630b1e7f831461006f57806317906c2e146100a3578063224ae14a146100c1575b600080fd5b6100596100dd565b6040516100669190610661565b60405180910390f35b610089600480360381019061008491906106cd565b61016b565b60405161009a95949392919061074a565b60405180910390f35b6100ab610359565b6040516100b891906107b2565b60405180910390f35b6100db60048036038101906100d69190610902565b61035f565b005b600080546100ea906109d8565b80601f0160208091040260200160405190810160405280929190818152602001828054610116906109d8565b80156101635780601f1061013857610100808354040283529160200191610163565b820191906000526020600020905b81548152906001019060200180831161014657829003601f168201915b505050505081565b6002602052806000526040600020600091509050806000015490806001018054610194906109d8565b80601f01602080910402602001604051908101604052809291908181526020018280546101c0906109d8565b801561020d5780601f106101e25761010080835404028352916020019161020d565b820191906000526020600020905b8154815290600101906020018083116101f057829003601f168201915b505050505090806002018054610222906109d8565b80601f016020809104026020016040519081016040528092919081815260200182805461024e906109d8565b801561029b5780601f106102705761010080835404028352916020019161029b565b820191906000526020600020905b81548152906001019060200180831161027e57829003601f168201915b5050505050908060030180546102b0906109d8565b80601f01602080910402602001604051908101604052809291908181526020018280546102dc906109d8565b80156103295780601f106102fe57610100808354040283529160200191610329565b820191906000526020600020905b81548152906001019060200180831161030c57829003601f168201915b5050505050908060040160009054906101000a900473ffffffffffffffffffffffffffffffffffffffff16905085565b60015481565b600083511161036d57600080fd5b600082511161037b57600080fd5b600081511161038957600080fd5b600073ffffffffffffffffffffffffffffffffffffffff163373ffffffffffffffffffffffffffffffffffffffff1614156103c357600080fd5b600160008154809291906103d690610a39565b919050556001819055506040518060a0016040528060015481526020018481526020018281526020018381526020013373ffffffffffffffffffffffffffffffffffffffff1681525060026000600154815260200190815260200160002060008201518160000155602082015181600101908051906020019061045a929190610525565b506040820151816002019080519060200190610477929190610525565b506060820151816003019080519060200190610494929190610525565b5060808201518160040160006101000a81548173ffffffffffffffffffffffffffffffffffffffff021916908373ffffffffffffffffffffffffffffffffffffffff1602179055509050507f50c12bd688c595315f0d353d1459d5ce4cfa2013ad3595250f440198265ba0d66001548483853360405161051895949392919061074a565b60405180910390a1505050565b828054610531906109d8565b90600052602060002090601f016020900481019282610553576000855561059a565b82601f1061056c57805160ff191683800117855561059a565b8280016001018555821561059a579182015b8281111561059957825182559160200191906001019061057e565b5b5090506105a791906105ab565b5090565b5b808211156105c45760008160009055506001016105ac565b5090565b600081519050919050565b600082825260208201905092915050565b60005b838110156106025780820151818401526020810190506105e7565b83811115610611576000848401525b50505050565b6000601f19601f8301169050919050565b6000610633826105c8565b61063d81856105d3565b935061064d8185602086016105e4565b61065681610617565b840191505092915050565b6000602082019050818103600083015261067b8184610628565b905092915050565b6000604051905090565b600080fd5b600080fd5b6000819050919050565b6106aa81610697565b81146106b557600080fd5b50565b6000813590506106c7816106a1565b92915050565b6000602082840312156106e3576106e261068d565b5b60006106f1848285016106b8565b91505092915050565b61070381610697565b82525050565b600073ffffffffffffffffffffffffffffffffffffffff82169050919050565b600061073482610709565b9050919050565b61074481610729565b82525050565b600060a08201905061075f60008301886106fa565b81810360208301526107718187610628565b905081810360408301526107858186610628565b905081810360608301526107998185610628565b90506107a8608083018461073b565b9695505050505050565b60006020820190506107c760008301846106fa565b92915050565b600080fd5b600080fd5b7f4e487b7100000000000000000000000000000000000000000000000000000000600052604160045260246000fd5b61080f82610617565b810181811067ffffffffffffffff8211171561082e5761082d6107d7565b5b80604052505050565b6000610841610683565b905061084d8282610806565b919050565b600067ffffffffffffffff82111561086d5761086c6107d7565b5b61087682610617565b9050602081019050919050565b82818337600083830152505050565b60006108a56108a084610852565b610837565b9050828152602081018484840111156108c1576108c06107d2565b5b6108cc848285610883565b509392505050565b600082601f8301126108e9576108e86107cd565b5b81356108f9848260208601610892565b91505092915050565b60008060006060848603121561091b5761091a61068d565b5b600084013567ffffffffffffffff81111561093957610938610692565b5b610945868287016108d4565b935050602084013567ffffffffffffffff81111561096657610965610692565b5b610972868287016108d4565b925050604084013567ffffffffffffffff81111561099357610992610692565b5b61099f868287016108d4565b9150509250925092565b7f4e487b7100000000000000000000000000000000000000000000000000000000600052602260045260246000fd5b600060028204905060018216806109f057607f821691505b60208210811415610a0457610a036109a9565b5b50919050565b7f4e487b7100000000000000000000000000000000000000000000000000000000600052601160045260246000fd5b6000610a4482610697565b91507fffffffffffffffffffffffffffffffffffffffffffffffffffffffffffffffff821415610a7757610a76610a0a565b5b60018201905091905056fea264697066735822122051f5af7cf611aabbf6c103477c74dda141ee69f257d97775c9958650d64e930164736f6c634300080a0033",
  "immutableReferences": {},
  "source": "// SPDX-License-Identifier: MIT\r\npragma solidity ^0.8.10;\r\n\r\n//this is the Digital notice smartcontract\r\ncontract Diginotice {\r\n    string public name = \"Diginotice\";\r\n\r\n    //Store posts\r\n    uint public postCount = 0;\r\n    mapping(uint => Post) public posts;\r\n\r\n\r\n    struct Post{\r\n        uint id;\r\n        string message;\r\n        string teacher;\r\n        string year;\r\n        address author;\r\n    }\r\n\r\n    event PostCreated(\r\n        uint id,\r\n        string message,\r\n        string teacher,\r\n        string year,\r\n        address author\r\n    );\r\n\r\n    //Create posts\r\n    function addPost(string memory _message, string memory _year, string memory _teacher) public {\r\n\r\n        require(bytes(_message).length > 0);\r\n        require(bytes(_year).length > 0);\r\n        require(bytes(_teacher).length > 0);\r\n        require(msg.sender != address(0x0));\r\n\r\n        postCount = postCount++;\r\n\r\n        //add post to contracr\r\n        posts[postCount] = Post(postCount, _message, _teacher,_year, msg.sender);\r\n\r\n        //trigger an event\r\n        emit PostCreated(postCount, _message, _teacher, _year, msg.sender);\r\n\r\n    }\r\n\r\n    //Comments\r\n}\r\n",
  "sourcePath": "H:\\Final Project\\FinalProject\\Diginotice\\contracts\\Diginotice.sol",
  "compiler": {
    "name": "solc",
    "version": "0.8.10+commit.fc410830.Emscripten.clang"
  },
  "schemaVersion": "3.4.7",
  "updatedAt": "2022-05-12T15:39:59.907Z",
  "devdoc": {
    "kind": "dev",
    "methods": {},
    "version": 1
  },
  "userdoc": {
    "kind": "user",
    "methods": {},
    "version": 1
  }
}